:020000040800F2
:100000000000022085AB0008C9AB0008C9AB00089E
:10001000C9AB0008C9AB0008C9AB0008000000006C
:10002000000000000000000000000000C9AB000854
:10003000C9AB000800000000C9AB0008C9AB00084C
:10004000C9AB0008C9AB0008C9AB0008C9AB0008C0
:10005000C9AB0008C9AB0008C9AB0008C9AB0008B0
:10006000C9AB0008C9AB0008C9AB0008C9AB0008A0
:10007000C9AB0008C9AB0008C9AB0008C9AB000890
:10008000C9AB0008C9AB0008C9AB0008C9AB000880
:10009000C9AB0008C9AB0008C9AB0008C9AB000870
:1000A000C9AB0008C9AB0008C9AB0008C9AB000860
:1000B000C9AB0008C9AB0008C9AB0008C9AB000850
:1000C000C9AB0008C9AB0008C9AB0008C9AB000840
:1000D000C9AB0008C9AB0008C9AB0008C9AB000830
:1000E000C9AB0008C9AB0008C9AB0008C9AB000820
:1000F000C9AB0008C9AB0008C9AB0008C9AB000810
:10010000C9AB0008C9AB000875020008C9AB0008FC
:10011000C9AB0008C9AB0008C9AB0008C9AB0008EF
:10012000C9AB0008C9AB0008C9AB0008C9AB0008DF
:10013000C9AB0008C9AB0008C9AB0008C9AB0008CF
:10014000C9AB0008C9AB0008C9AB0008C9AB0008BF
:10015000C9AB0008C9AB0008C9AB0008C9AB0008AF
:10016000C9AB0008C9AB0008C9AB0008C9AB00089F
:10017000C9AB0008C9AB0008C9AB0008C9AB00088F
:08018000C9AB0008C9AB00087F
:1001C00010B5054C237833B9044B13B10448AFF391
:1001D00000800123237010BD4C05002000000000AA
:1001E000ECAB000808B5034B1BB103490348AFF360
:1001F000008008BD0000000050050020ECAB0008A6
:10020000154B002B08BF134B9D46A3F5803A0021E8
:100210008B460F461348144A121A0AF033FB0F4B51
:10022000002B00D098470E4B002B00D098470020A1
:10023000002104000D000D48002802D00C480AF0EF
:10024000E9FB0AF0FBFA200029000AF077FC0AF02B
:10025000E5FA00BF000008000000000000000000F8
:10026000000000004C050020A805002015AA000889
:1002700021AA000838B50121454809F0D3F900B991
:1002800038BD444D444C2B8834F813000AF050F923
:1002900042480AF031F92B8834F8130009F0C6FF00
:1002A000B4F8F03034F8130009F0C0FFB4F8F230BD
:1002B00034F8130009F0BAFF2A88B4F8F03034F8A3
:1002C000120034F8133010FB03F080B209F0AEFFD7
:1002D000B4F8F020B4F8F23034F8120034F81330E7
:1002E00010FB03F080B209F0A1FFB4F8F2202B88D4
:1002F00034F8120034F8133010FB03F080B209F028
:1003000095FF4FF4487009F091FF4FF4617009F0C8
:100310008DFF4FF47A7009F089FF40F24C4009F0EC
:1003200085FF4FF4966009F081FF40F2145009F008
:100330007DFF4FF4AF6009F079FF40F2DC5009F027
:1003400075FF4FF4C86009F071FF40F2A46009F036
:100350006DFF2B880E4801339BB2772B88BF00239B
:100360002B80B4F8F03001339BB2772B88BF002389
:10037000A4F8F030B4F8F23001339BB2772B88BF89
:100380000023A4F8F2300121BDE8384009F046B955
:10039000000C00406805002004000020E8AB0008C5
:1003A00000B585B00849094A094B029101A801929C
:1003B000039300F02DF902A800F02AF903A800F039
:1003C00027F905B05DF804FB1D0000011C010001C8
:1003D0003202000130B50A4C83B00121082005F03B
:1003E00025FE4FF47045074B019320466946009562
:1003F00004F0BEFB2946204604F036FC03B030BDB5
:10040000000C02400103000200B5012183B0084640
:1004100005F00CFE0122054B054800926946019348
:1004200004F0A6FB03B05DF804FB00BF000300026C
:10043000000002400146014804F014BC000C0240D8
:100440000146014804F010BC000C0240014610B502
:100450000446074804F0F2FB01282146044803D073
:10046000BDE8104004F0FEBBBDE8104004F0FCBB4A
:10047000000C024008B50146084804F0DFFB084ABA
:1004800051781070814203461CBF0138B0FA80F0E9
:10049000537014BF4009002008BD00BF0000024097
:1004A00072050020354B36481A68002142F00102DF
:1004B0001A6099601A6822F0847222F480321A60FD
:1004C00058601A6882B022F480221A60D9600091C4
:1004D00001911A6842F480321A601A4603E0009BC8
:1004E000B3F5A04F09D0136803F400330193009BC8
:1004F00001330093019B002BF1D0204B1B6813F4B8
:10050000003318BF01230193019B012B05D01D4B24
:100510004FF000629A6002B07047184B1A491A6C8B
:100520001A4842F080521A640A6842F440420A6053
:100530009A689A609A6842F400429A609A6842F413
:10054000A0529A6058601A6842F080721A601A6865
:100550009201FCD50E49094A40F20560086099688D
:1005600021F003019960996841F002019960936854
:1005700003F00C03082BFAD1C9E700BF0038024092
:100580001030002400ED00E00070004008544107E6
:10059000003C0240154A936803F00C03042B23D05F
:1005A000082B09D0124B114A12499268C2F3031268
:1005B0008A5CD3400B6170475068516852684302AF
:1005C000C2F3881201F03F014CBF0B4B084BB3FB49
:1005D000F1F303FB02F3054A5268C2F30142013210
:1005E0005200B3FBF2F3DEE7034BDCE700380240D6
:1005F0000024F400F800002000127A0040F0BF60F0
:10060000024B40F40030D860704700BF00ED00E0BE
:10061000F0B40178C378012401F01F0294404D0921
:100620002BB920350F4B43F82540F0BC70470E4BDB
:100630004678DB6882780B4FD843C0F30220C0F1C4
:100640000403DBB29E400F230341F6B21340334351
:1006500039441B01DBB281F8003347F82540F0BC78
:10066000704700BF00E100E000ED00E021F06041D4
:1006700021F07F01014B01439960704700ED00E0DC
:10068000044A136919B923EA00001061704718433E
:100690001061704700ED00E0044A136804280CBFA5
:1006A00043F0040323F004031360704710E000E0FC
:1006B00008B501214FF4807005F024FD00214FF4AE
:1006C0008070BDE8084005F01DBD00BF42680B69A1
:1006D00070B422F040720E790D688C6822F480723A
:1006E00042EA06222A434260CE688568094A3343BB
:1006F0002A4023434C79134343EA440383600A7D31
:10070000C36A013AD2B223F4700343EA0253C362CC
:1007100070BC7047FDF7FFC0002301220275036023
:1007200003714371C0E90233036170470749084A06
:1007300030B4D0E900354C682240D0E902402B4368
:100740001343234303434B6030BC704700230140F5
:10075000E030FCFF0023C0E90033C0E902337047FA
:10076000836819B923F001038360704743F00103E4
:1007700083607047436823F4400323F400731943F4
:100780004160704741628262704700BF436823F056
:100790001F03194341607047054A536818B923F491
:1007A00000035360704743F400035360704700BF79
:1007B00000230140054A536818B923F480035360AD
:1007C000704743F480035360704700BF002301402B
:1007D000092970B41CD9A1F10A0404EB4404C568CA
:1007E0000726A640A34025EA06042343062AC36041
:1007F0001AD90C2A25D90D3A02EB8202C36A1F24AA
:100800009440914023EA04021143C16270BC7047D6
:1008100001EB410604690725B540B34024EA05040D
:100820002343062A0361E4D8013A02EB8202436BB8
:100830001F249440914023EA04021143416370BC99
:100840007047073A02EB8202036B1F2494409140E9
:1008500023EA04021143016370BC7047836843F0CC
:1008600080438360704700BF8068C0F3807070472A
:10087000836819B923F480638360704743F480630D
:1008800083607047836819B923F00203836070475F
:1008900043F00203836070474B1E416821F46041BE
:1008A00041EA433141607047436819B923F400635A
:1008B0004360704743F4006343607047C06C80B28C
:1008C000704700BF014B1868704700BF0823014004
:1008D000836819B923F480738360704743F480738D
:1008E00083607047836819B923F40073836070478D
:1008F00043F4007383607047054A536818B923F4C2
:1009000000535360704743F400535360704700BF77
:1009100000230140092970B41AD801EB410604698B
:100920000725B540B34024EA050423430361836BE4
:100930000232C3F30154121BD2B202EB82021F2413
:10094000944023EA040391401943816370BC7047CB
:10095000A1F10A0404EB4404C5680726A640A3409D
:1009600025EA06042343C360E1E700BF4B1E816B09
:1009700021F4401141EA03518163704782B00023A2
:1009800001930190019B19440191019B1A6002B0EF
:10099000704700BF836823F4702319438160704758
:1009A000836823F44013194381607047836843F4DC
:1009B00080038360704700BF8068C0F38050704739
:1009C000436819B923F480634360704743F480633C
:1009D00043607047436819B923F4805343607047FC
:1009E00043F480534360704782B000230193019029
:1009F000019B283319440191019B186880B202B011
:100A0000704700BFC9B201238B4041681AB921EA7F
:100A10000303436070470B43436070470368194208
:100A200014BF012000207047C9430160704700BF18
:100A30004268006810EA112007D00123C9B203FA06
:100A400001F1114214BF1846002070476FEA1121CE
:100A50000160704708B50D4B98424FF001010AD074
:100A60004FF0806005F042FB00214FF08060BDE850
:100A7000084005F03BBB4FF0007005F037FB00214C
:100A80004FF00070BDE8084005F030BB0064004046
:100A9000036823F002030360036843F0010303606B
:100AA0004368DB0707D44FF6FF7301E0013B02D038
:100AB0004268D207FAD5436813F001035AD08B7904
:100AC0000A88012B03680CBF43F0800323F08003E6
:100AD00070B40360CB79012B03680CBF43F0400373
:100AE00023F0400303600B7A012B03680CBF43F033
:100AF000200323F0200303604B7A012B03680CBF13
:100B000043F0100323F0100303608B7A012B03687A
:100B10000CBF43F0080323F008030360CB7A012BDA
:100B200003680CBF43F0040323F004030360CB7895
:100B30008E780D794C791B0643EA867343EA0543A8
:100B400043EA0453013A1343C361036823F00103EA
:100B500003604368D90707D54FF6FF7301E0013BF7
:100B600002D04268D207FAD44068C04300F00100C6
:100B700070BC7047184670473A4A837AD2F8001220
:100B800041F00101F0B4C2F800120121D2F81C5268
:100B90009940CC432540C2F81C52057B002D47D11B
:100BA000D2F80C62B0F806C045888788DB00264082
:100BB000C2F80C6203F18043028803F5C84345EA9A
:100BC0000C4542EA0742C3F84052C3F84422C37AB4
:100BD000244A3BBBD2F804322340C2F804320389D2
:100BE000BBB9204BD3F814221440C3F81442437B02
:100BF000012B05D11B4AD2F81C321943C2F81C1232
:100C0000184AD2F8003223F00103C2F80032F0BCD7
:100C10007047012BEBD1134AD2F814320B43C2F8C0
:100C20001432E4E7D2F804320B43C2F80432D6E7B8
:100C3000012DCCD1D2F80C62B0F800C0458887886D
:100C4000DB000E43C2F80C6203F18043C28803F557
:100C5000C84345EA0C4542EA0742C3F84052C3F88C
:100C60004422B4E700640040054BC0F80230012282
:100C7000002302808372C372C0F80630704700BF41
:100C8000000003020D4BD3F8002242F00102C3F82A
:100C90000022D3F8002222F47C5222F00E02C3F884
:100CA0000022D3F8002242EA0020C3F80002D3F861
:100CB000002222F00102C3F80022704700640040C5
:100CC000036819B923F480330360704743F4803319
:100CD000036070470368A9B923F080030360D0F86C
:100CE000843123F48073C0F88431D0F8943123F434
:100CF0008073C0F89431D0F8A43123F48073C0F825
:100D0000A431704743F080030360D0F8843143F48A
:100D10008073C0F88431D0F8943143F48073C0F804
:100D20009431D0F8A43143F48073C0F8A4317047F3
:100D30008368F0B45C01024605D48368180142D58B
:100D40000125284601E0002528462D015319D3F836
:100D5000804104F00104C3F880410E7A4C7A4EB30E
:100D60004F68D3F880C144EAC704344344EA0C0412
:100D7000C3F880418C7A04F00F048C72D3F884613C
:100D800026F00F06C3F88461D3F884613443C3F8B6
:100D900084412A44D1F80B40C2F88841D1F80F10A1
:100DA000C2F88C11D3F8802142F00102C3F88021EF
:100DB000F0BC70470F68D3F8806144EA475434436D
:100DC000C3F88041D6E79368DB0002D502252846A8
:100DD000BBE70420ECE700BF01291BD016D3022992
:100DE00010D183680D4A13400D4A93420CD007D9A5
:100DF0000C4A934208D0094A934205D0002070471C
:100E0000002BFBD102207047012070478368044A01
:100E10001340E9E78268034B1340E5E70000031045
:100E2000030000040003000801290DD007D30229A4
:100E300004D1836843F4000383607047704783687C
:100E400043F0800383607047836843F4004383600A
:100E5000704700BF00EB011310B4D3F8B04104F0A9
:100E600004041472C4BBD3F8B041640D1460D3F809
:100E7000B04104F002045472D3F8B44104F00F04FA
:100E80009472D3F8B44100EB0113240AD474D3F85C
:100E9000B841D472D3F8B841240A1473D3F8B841D6
:100EA000240C5473D3F8B841240E9473D3F8BC4186
:100EB000D473D3F8BC41240A1474D3F8BC41240C75
:100EC0005474D3F8BC311B0E937451B1036910BC38
:100ED00043F0200303617047D3F8B041E408546045
:100EE000C5E7C36810BC43F02003C360704700BF70
:100EF00021B1036943F0200303617047C36843F0E5
:100F00002003C360704700BF31B1012906BF0069EB
:100F100000F0030000207047C06800F00300704735
:100F2000E9B9036823F0030343F001030360436856
:100F300003F00303012B09D04FF6FF7201E0013AE1
:100F400004D0436803F00303012BF8D1406800F09C
:100F50000300A0F10100B0FA80F0400970470129B8
:100F600003D0022917D000207047036823F0030341
:100F700003604368990707D04FF6FF7301E0013B18
:100F800002D042689207FAD1436813F0030F0CBFF6
:100F9000012000207047036823F0030343F002039D
:100FA0000360436803F00303022B09D04FF6FF727E
:100FB00001E0013A04D0436803F00303022BF8D1A7
:100FC000406800F00300A0F10200B0FA80F0400990
:100FD000704700BF036823F0030343F0020303607C
:100FE000406800F00300A0F10200B0FA80F0400970
:100FF000704700BF036823F002030360436899074A
:1010000007D54FF6FF7301E0013B02D0426892071B
:10101000FAD4406880F00200C0F34000704700BF7F
:10102000806900F0700070478069000E704700BF53
:101030008069C0F30740704743691AB923EA010188
:101040004161704719434161704700BF11F4700F4F
:1010500007D08369C3F313030B4214BF01200020A0
:101060007047CB0107D54368C3F313030B4214BF8A
:101070000120002070470A0107D58368C3F31303DA
:101080000B4214BF0120002070478B014CBFC36886
:101090000369C3F313030B4214BF01200020704700
:1010A0000A4B99420CD08A01C1F3130306D44A01BA
:1010B00009D40A014CBF836043607047C360704726
:1010C0000023836170470361704700BF7000F030F8
:1010D00043690B4020D040295ED010D9B1F5006F94
:1010E0005ED01BD8B1F5007F4ED0B1F5806F35D002
:1010F000B1F5807F10D1806900F0010070470429AC
:1011000030D018D9102939D0202933D0082903D15B
:10111000C068C0F30010704700207047B1F5803FF1
:1011200036D0B1F5003F21D0B1F5004FF4D1406881
:10113000C0F380007047012907D00229ECD1C068B4
:1011400010F0030018BF01207047806800F00130E4
:1011500020F08070003018BF012070478069C0F314
:1011600080007047C068C0F3C00070474068C0F39B
:10117000001070470069C0F3C0007047006910F0AC
:10118000030018BF012070478069C0F3400070471A
:101190004068C0F3C00070470069C0F3001070479A
:1011A000836913F0700F14BF01200020704700BF47
:1011B000B1F5807F1ED00DD9B1F5006F24D013D9C1
:1011C000B1F5803F25D0B1F5003F2ED0B1F5004FED
:1011D0001AD0704708291FD00FD9202922D04029C2
:1011E00027D1102303617047B1F5007F02D0B1F51C
:1011F000806F1DD104234360704701290FD004295B
:1012000018D10823C3607047002204238261436021
:1012100070470823436070471023C3607047064B34
:101220008360704708230361704710234360704751
:1012300070477047704700BF01010100014B012258
:101240009A60704700300240014B18601868704780
:101250000030024041B10438054A00EB810150F8EA
:10126000043F13608842FAD1014B1868704700BFF1
:1012700000300240014B1868704700BF0030024048
:10128000014B1871704700BF00300240014B1879C4
:10129000704700BF0030024008B50121102004F063
:1012A0000DFF00211020BDE8084004F007BF00BF7B
:1012B000144B1A6822F4002222F0380210B41A608B
:1012C0001A6841680A431A601A6822F0C0021A605C
:1012D0001A68846822431A6031F0180207D01A682D
:1012E00022F440721A601A68C1680A431A60054BFA
:1012F00010BC1A6822F004021A6001681A680A43D6
:101300001A607047000006500023C0E90033C0E9AE
:1013100002337047084B02681A6242685A62826858
:101320009A62C268DA6202691A6342695A63826920
:101330009A63C269DA637047000006500023C0E96F
:101340000033C0E90233C0E90433C0E90633704713
:10135000044B02681A6442685A6482689A64C268DC
:10136000DA647047000006500023C0E90033C0E98A
:1013700002337047034A136823F440331843106064
:10138000704700BF00000650024A136843F48043D0
:101390001360704700000650054A136818B923F41B
:1013A00000431360704743F400431360704700BF6D
:1013B00000000650014B9860704700BF00000650C7
:1013C000014BD868704700BF00000650F0B482B0EF
:1013D000374C00230193236923F001032361236821
:1013E00013F0080F14BF112515254FF6FF7601E005
:1013F000012A08D06268019B01330193019BB3422B
:1014000002EA0502F4D12A4B5A681540012D03D097
:10141000002002B0F0BC70471C69264E24F0020484
:101420001C611C6824F400441C601A680F688C68F6
:10143000324002601A6C42605A6C82609A6CC260E0
:10144000DA6C4E680261CA68476186610F694E694D
:10145000C4610262D1E90642C0E90976C0E90B42E3
:101460001A6D42635A6D82639A6DC263DA6D0264CB
:101470001A6E42645A6E82649A6EC264DA6E0265B3
:101480001A6F42655A6F82659A6FC265DA6F02669B
:10149000D3F880204266D3F884208266D3F888206F
:1014A000C266D3F88C300367284602B0F0BC7047A0
:1014B00000000650FC030B00214B02681A604269D1
:1014C0001A6282695A62C2699A62026ADA62426A7E
:1014D0001A63826A5A63C26A9A63026BDA63426869
:1014E0001A6482685A64C2689A640269DA64426B58
:1014F0001A65826B5A65C26B9A65026CDA65426C3A
:101500001A66826C5A66C26C9A66026DDA66426D21
:101510001A67826D5A67C26D9A67026EDA67426E09
:10152000C3F88020826EC3F88420C26EC3F888207E
:10153000026FC3F88C201A6842F400421A607047A8
:101540000000065039B9064A136923EA000000F08A
:10155000FF0010617047024B1A6910431861704711
:101560000000065039B9064A536923EA000000F02A
:10157000FF0050617047024B5A6910435861704731
:1015800000000650034BDB69184214BF0120002005
:10159000704700BF00000650024B1868C0F3C0300F
:1015A000704700BF00000650044B82064CBF9B6989
:1015B0005B68184214BF01200020704700000650ED
:1015C0002DE9F0478EB0174680464FF0000A06A876
:1015D0000C461D46CDF804A0DDE91696FFF7AEFED9
:1015E000C02F00F0BE80B7F5807F00F09E80802F76
:1015F0006DD0B8F1000F23D102ACFFF7C5FE042275
:1016000038232046CDE90223CDF81080FFF750FEA5
:1016100006A8FFF77FFE0120FFF7BEFE00E058B1ED
:101620001020FFF7C1FF019B01330193019BB3F52C
:10163000803FF4D1002758B904230293012707E023
:1016400006A80EACFFF766FE002344F8303D0127E4
:10165000202280232046CDE90323FFF729FEFFF750
:1016600093FE0120FFF798FEFFF796FF002857D062
:10167000B9F1000F24D017B306F1040AAAEB050A4A
:101680002C1D4FF0000854F8040CFFF793FE20685F
:10169000FFF790FE6068FFF78DFEA068FFF78AFEF7
:1016A000CDF8048000E008B31020FFF77DFF019B18
:1016B00001330193019BB3F5803FF4D1B0B1002712
:1016C0000020FFF769FE38460EB0BDE8F087CDF880
:1016D00014A023681BBA0A9363681BBA0B93A36810
:1016E0001BBA0C93E3681BBA0D9382E7FFF768FE01
:1016F000631B334443F8040CFFF762FE731B18515D
:10170000FFF75EFE4AF80400FFF75AFE06F10803F1
:101710005B1B18511034631B043B9945B3D8CFE7CA
:10172000074638460EB0BDE8F0874FF400730593C6
:1017300023681BBA069363681BBA0793A3681BBA96
:101740000893E3681BBA099323691BBA0A93636978
:101750001BBA0B93A3691BBA0C93E3691BBA0D93D5
:1017600047E74FF48073059323681BBA08936368B7
:101770001BBA0993A3681BBA0A93E3681BBA0B93BD
:1017800023691BBA0C9363691BBA0D9331E700BF41
:101790002DE9F04F93B09A4680464FF0000B0AA80F
:1017A0000F461446CDF804B0DDE91C591E9EFFF724
:1017B000C5FDBAF1C00F00F0CE80BAF5807F00F011
:1017C000AE80BAF1800F7CD03B681BBA06937B6871
:1017D0001BBA0793BB681BBA0893FB681BBA099333
:1017E000B8F1000F23D102ACFFF7CEFD042238235D
:1017F0002046CDE90223CDF81080FFF759FD0AA855
:10180000FFF788FD0120FFF7C7FD00E058B1102069
:10181000FFF7CAFE019B01330193019BB3F5803FA3
:10182000F4D1002758B904230293012707E00AA83E
:1018300012ACFFF76FFD002344F8403D012728223A
:1018400080232046CDE90323FFF732FD06A8FFF7EA
:101850007FFDFFF799FD0120FFF79EFDFFF79CFE3E
:10186000002857D0B9F1000F24D017B306F1040AAD
:10187000AAEB050A2C1D4FF0000854F8040CFFF7E2
:1018800099FD2068FFF796FD6068FFF793FDA0685B
:10189000FFF790FDCDF8048000E008B31020FFF7BB
:1018A00083FE019B01330193019BB3F5803FF4D18B
:1018B000B0B100270020FFF76FFD384613B0BDE838
:1018C000F08FCDF814B023681BBA0E9363681BBA6F
:1018D0000F93A3681BBA1093E3681BBA119373E7C5
:1018E000FFF76EFD631B334443F8040CFFF768FDFC
:1018F000731B1851FFF764FD4AF80400FFF760FD01
:1019000006F108035B1B18511034631B043B994517
:10191000B3D8CFE70746384613B0BDE8F08F4FF491
:101920000073059323681BBA0A9363681BBA0B9371
:10193000A3681BBA0C93E3681BBA0D9323691BBA07
:101940000E9363691BBA0F93A3691BBA1093E369E3
:101950001BBA119338E74FF48073059323681BBAC1
:101960000C9363681BBA0D93A3681BBA0E93E368CC
:101970001BBA0F9323691BBA109363691BBA1193A7
:1019800022E700BF2DE9F04F93B09A4681464FF011
:10199000000B0AA80F461446CDF804B0DDE91C5828
:1019A0001E9EFFF7CBFCBAF1C00F00F0A680BAF57F
:1019B000807F00F08680BAF1800F6ED03B681BBA42
:1019C00006937B681BBA0793BB681BBA0893FB6836
:1019D0001BBA0AA80993FFF79DFCB9F1000F0CBFD1
:1019E000042100213022802302A8CDE902120493B1
:1019F000FFF75EFC06A8FFF7ABFCFFF7C5FC012074
:101A0000FFF7CAFCFFF7C8FD002855D0B8F1000F5A
:101A100041D006F10409A9EB05092C1D002754F853
:101A2000040CFFF7C7FC2068FFF7C4FC6068FFF7F1
:101A3000C1FCA068FFF7BEFC019700E090B1102048
:101A4000FFF7B2FD019B01330193019BB3F5803F8A
:101A5000F4D138B100240020FFF79EFC204613B0DB
:101A6000BDE8F08FFFF7ACFC631B334443F8040C74
:101A7000FFF7A6FC731B1851FFF7A2FC49F80400FE
:101A8000FFF79EFC06F108035B1B18511034631B23
:101A9000043B9845C3D80124DDE7CDF814B0236892
:101AA0001BBA0E9363681BBA0F93A3681BBA1093FB
:101AB000E3681BBA119381E70446204613B0BDE8E2
:101AC000F08F4FF40073059323681BBA0A93636881
:101AD0001BBA0B93A3681BBA0C93E3681BBA0D9354
:101AE00023691BBA0E9363691BBA0F93A3691BBAD0
:101AF0001093E3691BBA119360E74FF48073059369
:101B000023681BBA0C9363681BBA0D93A3681BBAB6
:101B10000E93E3681BBA0F9323691BBA1093636992
:101B20001BBA11934AE700BF2DE9F04F95B09846D4
:101B30001F9E219DF300814600270CA88A4614466B
:101B400001930397FFF7FAFBB8F1C00F4FEAC50BFB
:101B500000F08A81B8F5807F00F06A81B8F1800FCB
:101B600000F0C180DAF800301BBA0893DAF80430CC
:101B70001BBA0993DAF808301BBA0A93DAF80C306A
:101B80001BBAB9F1010F0B9300F0BB80FFF7FCFB10
:101B90000CA8FFF7BFFB08A8FFF7DAFB04234FF4FC
:101BA0000022049304A8802305920693FFF780FB8C
:101BB0000020FFF7DFFB0120FFF7EEFBFFF7ECFC57
:101BC0000128FBD0002D51D10124002E3DD04FF42F
:101BD0000030FFF7CFFB0120FFF7DEFBFFF7DCFC57
:101BE00000283ED084B31E9A6FF003039B1A9A46D6
:101BF000151D02F1080902F10C080120FFF7D4FCC1
:101C00000028FAD055F8040CFFF7D4FB2868FFF73A
:101C1000D1FBD9F80000FFF7CDFBD8F80000FFF7A3
:101C2000C9FB0023039302E0002800F04881102044
:101C3000FFF7BAFC039B01330393039BB3F5803F8B
:101C4000F2D1002800F03B8100244FF44030FFF730
:101C500091FB0120FFF7A0FBFFF79EFC002840F05E
:101C600019810024204615B0BDE8F08F4FF4803074
:101C7000FFF780FB0120FFF78FFBFFF78DFC0028AB
:101C8000EFD0209B6FF00308A8EB03081C1D012078
:101C9000FFF78AFC0028FAD054F8040CFFF78AFBFF
:101CA0002068FFF787FB6068FFF784FB103454F867
:101CB000080CFFF77FFB08EB04039D42E7D80023E5
:101CC000039302E000283FF47FAF1020FFF76CFC85
:101CD000039B01330393039BB3F5803FF2D1B0FA2A
:101CE00080F4640971E7079723681BBA109363684F
:101CF0001BBA1193A3681BBA1293E3681BBA139320
:101D000030E7FFF741FB0CA8FFF704FB08A8FFF73B
:101D10001FFB00244FF40022802304A8CDE90442D5
:101D20000693FFF7C5FA2046FFF724FB4846FFF766
:101D300033FBFFF731FC0128FBD0002D40F0098177
:101D40000124002E3DD04FF40030FFF713FB01209B
:101D5000FFF722FBFFF720FC002882D084B31E9AF5
:101D60006FF003039B1A9A46151D02F1080902F150
:101D70000C080120FFF718FC0028FAD055F8040CD5
:101D8000FFF718FB2868FFF715FBD9F80000FFF7ED
:101D900011FBD8F80000FFF70DFB0023039302E0CE
:101DA000002800F0B1801020FFF7FEFB039B0133F9
:101DB0000393039BB3F5803FF2D1002800F0A48089
:101DC00000244FF44030FFF7D5FA0120FFF7E4FA82
:101DD000FFF7E2FB00283FF444AF002528BAFFF7E5
:101DE000E9FA9BFA8BF0FFF7E5FA28BAFFF7E2FA77
:101DF000019B18BAFFF7DEFA0420FFF7D5FB002895
:101E0000FAD0FFF7DDFA239B1860FFF7D9FA239B7E
:101E10005860FFF7D5FA239B9860FFF7D1FA239B10
:101E2000D8600020FFF7B8FA204615B0BDE8F08F63
:101E30004FF40073079323681BBA0C9363681BBAB3
:101E40000D93A3681BBA0E93E3681BBA0F93236923
:101E50001BBA109363691BBA1193A3691BBA12933F
:101E6000E3691BBA13937DE64FF4807307932368ED
:101E70001BBA0E9363681BBA0F93A3681BBA109327
:101E8000E3681BBA119323691BBA129363691BBAE7
:101E9000139367E6002528BAFFF78CFA9BFA8BF0BC
:101EA000FFF788FA28BAFFF785FA019B18BAFFF7FF
:101EB00081FA0420FFF778FB0028FAD0A1E704207C
:101EC000FFF772FB0028FAD0FFF77AFA1E9B229ADE
:101ED0001E99EB1A1344571A43F8040CFFF770FAD3
:101EE000E851FFF76DFA49F80700FFF769FA103576
:101EF00053462B449E4248F8070009F1100908F1A7
:101F000010083FF67AAEA0E60420FFF74DFB00284C
:101F1000FAD0FFF755FA1E9B229A1E99EB1A13442A
:101F2000571A43F8040CFFF74BFA7851FFF748FAB9
:101F300047F80900FFF744FA103553462B449E42F8
:101F400047F8080009F1100908F110083FF611AF31
:101F500037E74FF48030FFF70DFA0120FFF71CFA46
:101F6000FFF71AFB00283FF47CAE209B6FF00308BC
:101F7000A8EB03081C1D0120FFF716FB0028FAD070
:101F800054F8040CFFF716FA2068FFF713FA60689C
:101F9000FFF710FA103454F8080CFFF70BFA08EBAF
:101FA00004039D42E7D80023039302E000283FF496
:101FB000C7AE1020FFF7F8FA039B01330393039B8E
:101FC000B3F5803FF2D1B0FA80F46409002E3FF4FB
:101FD000F8AEB8E62DE9F04FA1B000272E9CBDF871
:101FE000A8802F9E0D97814615469A4603970C9719
:101FF000CDE90E7710971497CDE911771397CDE9B6
:1020000015771797002C40F0DE80DDF8B4B020463D
:10201000329BDBB2023B03EBD3739A00C5F10E0394
:1020200002F0380203F00703134303438DF8303006
:1020300035B12A460DF1310008F0E0FA0C2D0AD82E
:10204000681C0D280CABC5F10D02184488BF012295
:10205000002108F017FC2C9A9DF830308DF83F20B5
:102060002C9A03F00703120A8DF840308DF83E20B9
:1020700035B12A460DF131010DF1410008F0BEFAEB
:102080009DF84F3018A843F001038DF84F30FFF74B
:1020900055F9B8F1C00F00F08982B8F5807F00F0E3
:1020A0006182B8F1800F00F0A481109E33BA0893CA
:1020B000119B1BBA0993129B1BBA0A93139B1BBA61
:1020C000B9F1010F0B930C9D00F0A681FFF75CF9AD
:1020D00018A8FFF71FF908A8FFF73AF904234FF0F3
:1020E0000812049304A8802305920693FFF7E0F8F2
:1020F0000020FFF73FF92846FFF75CF90D98FFF73E
:1021000059F90E98FFF756F90F98FFF753F9012088
:10211000FFF742F9FFF740FA0128FBD0002C40F00E
:10212000308101242C9B002B3CD04FF40030FFF772
:1021300021F90120FFF730F9FFF72EFA00283DD0F2
:102140007CB32B9B6FF0030AAAEB030A1D1D03F15E
:10215000080803F10C070120FFF726FA0028FAD03F
:1021600055F8040CFFF726F92868FFF723F9D8F88B
:102170000000FFF71FF93868FFF71CF900230393ED
:1021800002E0002800F042821020FFF70DFA039BC6
:1021900001330393039BB3F5803FF2D1002800F095
:1021A000358200244FF44030FFF7E4F80120FFF7B8
:1021B000F3F8FFF7F1F9002840F0148200242046DC
:1021C00021B0BDE8F08FB4F57F4FE3B280F0CB8053
:1021D000C4F30722327073700234B34602222D9882
:1021E0002D9F131D334406EB020C0430844538BF89
:1021F0009F42C0F09C820B2C40F29982784210F0F2
:1022000003003B4600F09F823B788CF80030571C5F
:102210000128009700F04A822D9B03285B78F35534
:1022200002F1020340F092822D9F97F802C006F857
:1022300003C0D31CCDE900303B460244A4EB000CA4
:10224000324418444FEA9C0E0023013350F8047BBB
:1022500042F8047B9E45F8D82CF00303019A0098BD
:102260009C451A4418442AD02D9B9B5C3354531C24
:10227000A34200F1010C22D22D9FFB5C06F80C302A
:10228000931CA34200F1020C19D2FB5C06F80C303F
:10229000D31CA34200F1030C11D2FB5C06F80C30F6
:1022A000131DA34200F1040C09D20532FB5C06F8B1
:1022B0000C30A24200F1050001D2BB5C335423076D
:1022C0004FD024F00F0202F11007A742C0F0F181B5
:1022D000121B1132142A40F2408233195B4213F070
:1022E000030300F038820020012B305504F1010C6B
:1022F00009D0032B06F80C0004F1020C03D106F8F8
:102300000C0004F1030CD21A1C44002334444FEA9D
:10231000920E184601339E4544F8040BFAD822F079
:10232000030393429C441BD00CF10102974206F830
:102330000C0015D30CF10203BB42B05410D80CF1C1
:102340000302BA42F0540BD80CF104039F42B0547C
:1023500006D30CF1050C6745F05401D306F80C00C8
:102360003C46402054E6FE20FF220634B770F7704A
:102370003771737170703270B34600F09E8106221F
:102380002DE74FF48030FEF7F5FF0120FFF704F84A
:10239000FFF702F900283FF411AF5D460120FFF777
:1023A00003F90028FAD02868FFF704F86868FFF7F7
:1023B00001F8A868FEF7FEFF103555F8040CFEF78B
:1023C000F9FFA5EB0B039C42E8D80023039302E03E
:1023D00000283FF4A6AE1020FFF7E6F8039B013378
:1023E0000393039BB3F5803FF2D1B0FA80F4640904
:1023F00098E600230793DAF800301BBA1C93DAF84A
:1024000004301BBA1D93DAF808301BBA1E93DAF8B1
:102410000C301BBA1F9348E6FEF7B6FF18A8FEF76C
:1024200079FF08A8FEF794FF00274FF008128023D9
:1024300004A8CDE904720693FEF73AFF3846FEF78A
:1024400099FF2846FEF7B6FF0D98FEF7B3FF0E98EA
:10245000FEF7B0FF0F98FEF7ADFF4846FEF79CFF72
:10246000FFF79AF80128FBD0002C40F028810124C6
:102470002C9B002B3DD04FF40030FEF77BFF01205A
:10248000FEF78AFFFFF788F800283FF497AE7CB389
:102490002B9B6FF0030AAAEB030A1D1D03F108082A
:1024A00003F10C070120FFF77FF80028FAD055F858
:1024B000040CFEF77FFF2868FEF77CFFD8F80000C9
:1024C000FEF778FF3868FEF775FF0023039302E0FC
:1024D000002800F0C3801020FFF766F8039B01334B
:1024E0000393039BB3F5803FF2D1002800F0B68040
:1024F00000244FF44030FEF73DFF0120FEF74CFF73
:10250000FFF74AF800283FF459AE3046FEF752FF75
:102510001198FEF74FFF1298FEF74CFF139820F02A
:102520008070FEF747FF0420FFF73EF80028FAD03E
:10253000FEF746FF1490FEF743FF1590FEF740FFAD
:102540001690FEF73DFF329B179023B114A91A464F
:10255000319808F053F80020FEF71EFF204621B006
:10256000BDE8F08F4FF400730793DAF800301BBA20
:102570001893DAF804301BBA1993DAF808301BBA4A
:102580001A93DAF80C301BBA1B93DAF810301BBA26
:102590001C93DAF814301BBA1D93DAF818301BBA02
:1025A0001E93DAF81C301BBA1F937EE54FF480733C
:1025B0000793DAF800301BBA1A93DAF804301BBA22
:1025C0001B93DAF808301BBA1C93DAF80C301BBAEC
:1025D0001D93DAF810301BBA1E93DAF814301BBAC8
:1025E0001F9362E53046FEF7E5FE1198FEF7E2FE26
:1025F0001298FEF7DFFE139820F08070FEF7DAFEE7
:102600000420FEF7D1FF0028FAD091E70420FEF75E
:10261000CBFF0028FAD0FEF7D3FE2B9B309A2B99E4
:10262000EB1A1344A2EB010943F8040CFEF7C8FEB1
:1026300045F80900FEF7C4FE48F80900FEF7C0FEA1
:1026400010352C9A47F809000AEB05039A4208F165
:10265000100807F110073FF67EADA3E50420FEF752
:10266000A3FF0028FAD0FEF7ABFE2B9B309A2B99E4
:10267000EB1A1344A2EB010943F8040CFEF7A0FE89
:1026800045F80900FEF79CFE48F80900FEF798FEA1
:1026900010352C9A47F809000AEB05039A4208F115
:1026A000100807F110073FF6FDAE22E701902D9BC1
:1026B000C3E53C46002F7FF454AE2046A8E44FF417
:1026C0008030FEF757FE0120FEF766FEFEF764FF3E
:1026D00000283FF473AD5D460120FEF765FF00283A
:1026E000FAD02868FEF766FE6868FEF763FEA86801
:1026F000FEF760FE103555F8040CFEF75BFEA5EB07
:102700000B039C42E8D80023039302E000283FF427
:10271000AEAE1020FEF748FF039B01330393039BEB
:10272000B3F5803FF2D1B0FA80F46409A0E62D9BA6
:10273000013A5F1E3819B31817F8012F03F8012F5B
:102740008742F9D1BBE5CDE9002076E5009302236D
:1027500001932D9B71E5A446D5E5631E1E4400231D
:102760000134A74206F8013FFAD2F9E52DE9F0431A
:102770008FB08146002506A80C461646984601955E
:10278000169FFEF7DBFDB9F1010F0CBF29460421AE
:102790001022802302A8CDE903230291FEF788FDD1
:1027A00023681BBA089363681BBA06A80993FEF74F
:1027B000B1FDFEF7E9FD0120FEF7EEFDFEF7ECFEB0
:1027C000A8B3B8F1000F30D06FF00309A9EB0609E8
:1027D000341D54F8040CFEF7EDFD2068FEF7EAFD09
:1027E000019500E090B11020FEF7DEFE019B013361
:1027F0000193019BB3F5803FF4D138B10024002050
:10280000FEF7CAFD20460FB0BDE8F083FEF7D8FD05
:10281000A31B3B4443F8040CFEF7D2FDBB1B18512D
:10282000083409EB04039845D3D80124E7E70446AC
:1028300020460FB0BDE8F0832DE9F04792B0824604
:1028400000250AA8894614461E460195DDE91A8727
:10285000FEF774FDBAF1010F0CBF294604211822BE
:10286000802302A8CDE903230291FEF721FDD9F8C8
:1028700000301BBA0C93D9F804301BBA0AA80D9388
:10288000FEF748FD23681BBA069363681BBA06A8C7
:102890000793FEF75DFDFEF777FD0120FEF77CFD57
:1028A000FEF77AFEA8B3B8F1000F30D06FF003093D
:1028B000A9EB0609341D54F8040CFEF77BFD2068D3
:1028C000FEF778FD019500E090B11020FEF76CFE58
:1028D000019B01330193019BB3F5803FF4D138B1E3
:1028E00000240020FEF758FD204612B0BDE8F08716
:1028F000FEF766FDA31B3B4443F8040CFEF760FDA6
:10290000BB1B1851083409EB04039845D3D80124A4
:10291000E7E70446204612B0BDE8F0872DE9F04312
:102920008FB00025814606A816460C4698460195AC
:10293000169FFEF703FDB9F1010F0CBF2A460422D2
:10294000802302A80493CDE90225FEF7B1FC236899
:102950001BBA089363681BBA0993A3681BBA0A934E
:10296000E3681BBA0B9323691BBA0C9363691BBA08
:1029700006A80D93FEF7CEFCFEF706FD0120FEF73C
:102980000BFDFEF709FEA8B3B8F1000F30D06FF0D1
:102990000309A9EB0609341D54F8040CFEF70AFDDF
:1029A0002068FEF707FD019500E090B11020FEF7CA
:1029B000FBFD019B01330193019BB3F5803FF4D1F3
:1029C00038B100240020FEF7E7FC20460FB0BDE838
:1029D000F083FEF7F5FCA31B3B4443F8040CFEF721
:1029E000EFFCBB1B1851083409EB04039845D3D8FE
:1029F0000124E7E7044620460FB0BDE8F08300BF9E
:102A00002DE9F04792B0824600250AA80C4691466F
:102A10001E460195DDE91A87FEF790FCBAF1010F19
:102A20004FF008020CBF2946042180230DEB020061
:102A3000CDE903230291FEF73BFC23681BBA0C93FC
:102A400063681BBA0D93A3681BBA0E93E3681BBAA5
:102A50000F9323691BBA109363691BBA0AA81193D9
:102A6000FEF758FCD9F800301BBA0693D9F80430A9
:102A70001BBA06A80793FEF76BFCFEF785FC012046
:102A8000FEF78AFCFEF788FDA8B3B8F1000F30D03E
:102A90006FF00309A9EB0609341D54F8040CFEF786
:102AA00089FC2068FEF786FC019500E090B11020BB
:102AB000FEF77AFD019B01330193019BB3F5803F43
:102AC000F4D138B100240020FEF766FC204612B095
:102AD000BDE8F087FEF774FCA31B3B4443F8040CED
:102AE000FEF76EFCBB1B1851083409EB0403984534
:102AF000D3D80124E7E70446204612B0BDE8F087AA
:102B000008B501214FF0005003F0F0FA00214FF01A
:102B10000050BDE8084003F0E9BA00BF70B4D1E945
:102B20000036D1E90225084C3343134340F6FE71C9
:102B300022682B43814003FA00F022EA0103184384
:102B4000206070BC704700BF007400400023C0E9E3
:102B50000033C0E902337047064A012303FA00F04C
:102B6000136819B923EA0000106070471843106019
:102B7000704700BF00740040064A0123000903FAB1
:102B800000F0536819B923EA0000506070471843F9
:102B90005060704700740040054A536818B923F02C
:102BA00003035360704743F003035360704700BF53
:102BB0000074004081402AB9054A136823EA0101E4
:102BC00011607047024B186801431960704700BFDD
:102BD0000074004082B00022054B01920193019BDA
:102BE000083318440190019B196002B0704700BF80
:102BF0000074004082B00022054B01920193019BBA
:102C0000143318440190019B196002B0704700BF53
:102C1000007400400828044B0CBF42EA012242EA3B
:102C20000142C250704700BF2074004082B00022B1
:102C3000064B01920193019B2C3303EB9000019012
:102C4000019B186880B202B0704700BF007400405A
:102C5000064A4FF4805303FA00F0136819B923EAC7
:102C60000000106070471843106070470074004007
:102C7000054B814018681AB920EA010119607047B4
:102C800001431960704700BF00740040034B5B6B49
:102C90008140194214BF0120002070470074004099
:102CA000014B81405963704700740040054B1A681E
:102CB0005B6B814011EA030003D00A4214BF01207C
:102CC0000020704700740040014B814059637047F9
:102CD00000740040014B1868000C7047002004E0AD
:102CE000024B1868C0F30B00704700BF002004E0DF
:102CF000044A536819B923EA00005060704718432A
:102D000050607047002004E0044A936819B923EA30
:102D1000000090607047184390607047002004E006
:102D2000044AD36819B923EA0000D06070471843F9
:102D3000D0607047002004E0054B00221F211A607C
:102D4000DA6059619A61DA611A625A62704700BFAB
:102D5000000005500E4903880A6870B445888488CD
:102D6000C68822F480422B4322F0010205890A60C2
:102D70002343334344890A6880892B43234322F445
:102D80007F62034322F0020213430B6070BC704762
:102D90000000055000230360436083608381704717
:102DA00030B4428805888488C388044942EA0542D1
:102DB00043EA04430A6230BC4B627047000005508E
:102DC000054A136818B923F004031360704743F0F1
:102DD00004031360704700BF00000550014B0268F8
:102DE0009A61704700000550054A136818B923F02E
:102DF00008031360704743F008031360704700BF77
:102E000000000550054A136818B923F48043136085
:102E1000704743F480431360704700BF00000550C3
:102E2000054A136818B923F001031360704743F093
:102E300001031360704700BF00000550014B986A02
:102E4000704700BF00000550054B29B9DA68C04340
:102E500080B21040D8607047DA681043D86070477D
:102E600000000550030B06D1064B9B68184214BFA7
:102E7000012000207047022B024B0CBF5B681B69CE
:102E8000F4E700BF00000550014B5861704700BFD8
:102E900000000550034B1B69184214BF012000209D
:102EA000704700BF00000550014B5861704700BFDC
:102EB0000000055002683449002310B422F00102DA
:102EC000212488420260036043608360C360036121
:102ED000446131D02D4B984233D02D4B984236D09F
:102EE0002C4B98423DD02C4B984240D02B4B9842D3
:102EF00033D02B4B98423ED02A4B984217D02A4BC6
:102F000098423CD0294B98421BD0294B98421ED066
:102F1000284B984225D0284B984228D0274B9842DE
:102F20001BD0274B984226D0264B984207D14FF012
:102F30003D5243F8AC2C02E0234B3D229A6010BC7A
:102F400070474FF4746243F8202C10BC70474FF464
:102F5000741243F8382C10BC70471C4A43F87C2C80
:102F6000EDE74FF0746243F8502C10BC7047184ADC
:102F700043F8642CE3E7174A43F8942CDFE73D223B
:102F800043F8082CDBE700BF1060024028600240D5
:102F90004060024058600240706002408860024019
:102FA000A0600240B8600240106402402864024001
:102FB00040640240586402407064024088640240E9
:102FC000A0640240B864024000600240400F00204C
:102FD0003D00002000003D200B6870B4D1E90524BD
:102FE000CD682B431343D1E9072523431343D1E98C
:102FF00009422B43D1E90D652343134304680B4A6F
:10300000334322402B4313430360D1E90B3442691D
:103010000D6922F0070223431343D1E901424361C2
:1030200045608460C26070BC704700BF3F801CF088
:103030000023C0E90033C0E90233C0E90433C0E92A
:103040000633C0E90833C0E90A33C0E90C338363AF
:10305000704700BF036819B923F00103036070478C
:1030600043F0010303607047036819B923F4004378
:103070000360704743F4004303607047036819B965
:1030800023F020030360704743F020030360704780
:1030900041607047406880B2704700BF036822B942
:1030A00023F4002303600161704743F400230360AD
:1030B00001617047036819B923F4802303607047E6
:1030C00043F48023036070470AB9C160704701610F
:1030D000704700BF0068C0F3C0407047006800F050
:1030E00001007047406900F0380070470A4B0B4AF6
:1030F00010B40B4CA04294BF184610468B004CBF36
:103100004368036810BC21F0F02121F082111942BC
:1031100014BF01200020704700600240006402409C
:103120000F64024030B4084B084D094C21F0F022E6
:10313000A8428CBF1846204622F082128B004CBF5A
:10314000C260826030BC7047006402400F6402407D
:10315000006002400B060CD54369AAB143F080031E
:10316000802943610FD0036801F01E0119430160FB
:103170007047802907D0002AF5D1036801F01E01AD
:1031800023EA01010160704723F080038029436135
:10319000F3D1704730B4114B114D124A21F0F02495
:1031A00024F0C314A84298BF1A469CB1006800EAF4
:1031B000D12000F01E0388004CBF5068106821F039
:1031C000F02121F08211084002D0181C18BF012004
:1031D00030BC7047436903F08003ECE700600240B5
:1031E0000F6402400064024030B4084B084D094CA3
:1031F00021F0F022A8428CBF1846204622F082120D
:103200008B004CBFC260826030BC704700640240DB
:103210000F6402400060024008B501214FF4000035
:1032200002F040FF00214FF40000BDE8084002F02A
:1032300039BF00BF294B1A6822F0031222F4F8525A
:1032400070B41A601A6801680A431A605A6B22F057
:1032500007025A635A6B41680A435A63D0E9034232
:1032600051B101292DD0022933D0032945692CD031
:10327000240111022D0303E04569240211042D06E7
:10328000164B86689A6B324322430A432A439A6359
:103290008269DA631A6C22F47F5222F03F021A64C8
:1032A0001A6CC1690A431A64596C446A01F04041BE
:1032B0005964016A5A6C0A4342EA04425A6470BC77
:1032C0007047240211040025DAE764019102ED033E
:1032D000D6E76401D1020025D2E700BF00B002406A
:1032E0000023C0E90033C0E90233C0E90433C0E978
:1032F0000633C0E908337047024A136843F00103FC
:103300001360704700B00240024A136843F00403A0
:103310001360704700B00240054A136818B923F0E3
:1033200002031360704743F002031360704700BF4D
:1033300000B00240194B0268194930B4DA601A69CA
:1033400022F47F5222F03F021A611A694468224334
:103350001A61DA691140D961D0E90241DA69056977
:10336000224342EA0112D0E9054142EA052242EA3B
:10337000044242EA0162DA611A6A02F07F421A628A
:10338000D0E907541A6A416A2A4342EA042242EA0F
:1033900001421A62826ADA6230BC704700B00240B1
:1033A000C000FC000023C0E90033C0E90233C0E9DB
:1033B0000433C0E90633C0E908338362704700BFB5
:1033C000194B0268194930B45A619A6922F47F5244
:1033D00022F03F029A619A69446822439A615A6ACC
:1033E00011405962D0E902415A6A0569224342EA12
:1033F0000112D0E9054142EA052242EA044242EACA
:1034000001625A629A6A02F07F429A62D0E90754D6
:103410009A6A416A2A4342EA042242EA01429A62D3
:10342000826A1A6330BC704700B00240C000FC00E2
:103430000023C0E90033C0E90233C0E90433C0E926
:103440000633C0E908338362704700BF054AD36979
:1034500018B923F02003D361704743F02003D361F0
:10346000704700BF00B00240054A536A18B923F004
:1034700020035362704743F020035362704700BF3C
:1034800000B00240094AD36C19B923F00103D36498
:10349000704723F47F4323F00103D364D36C43F0DC
:1034A000010343EA0020D064704700BF00B002402F
:1034B000014B9864704700BF00B00240044A136893
:1034C00019B923EA00001060704718431060704774
:1034D00000B00240034B5B68034214BF0120002090
:1034E000704700BF00B00240014B9860704700BFBA
:1034F00000B00240064A536813EA102305D013684F
:10350000184214BF01200020704712681846704707
:1035100000B00240014B000A9860704700B00240C2
:10352000044B054900221A605A609A60DA605961BA
:10353000704700BF003C0140FFFF7F0003798279A4
:1035400070B4056803F1804303F59E33EC43F2B198
:10355000154A417916682640166056683440546012
:103560001C6825431D6000689468C3431C40946038
:10357000D468102903EA0403D3600DD001F180431D
:1035800003F59E3370BC1A681043186070471A68C0
:1035900014401C6070BC7047936803439360D36809
:1035A0001843D06070BC7047003C014000230C22DF
:1035B0004271036003718371704700BF024A13694F
:1035C00018431061704700BF003C0140034B5B692A
:1035D000034214BF01200020704700BF003C01409F
:1035E000014B5861704700BF003C0140034B5B69D1
:1035F000184214BF01200020704700BF003C01406A
:10360000014B5861704700BF003C0140014BC0B204
:1036100018707047003C0240054A136818B923F43B
:1036200080731360704743F480731360704700BF6A
:10363000003C0240054A136818B923F40073136074
:10364000704743F400731360704700BF003C0240B2
:10365000054A136818B923F480631360704743F474
:1036600080631360704700BF003C0240024A136849
:1036700043F4006313607047003C0240024A136841
:1036800043F4805313607047003C0240044B1A69B6
:10369000002A03DA0349044A59605A60704700BFA0
:1036A000003C024023016745AB89EFCD024A136914
:1036B00043F0004313617047003C0240044B5A69D9
:1036C000D20703D50349044A99609A60704700BF46
:1036D000003C02403B2A19087F6E5D4C024A536948
:1036E00043F0010353617047003C024082B009225D
:1036F000304B8DF80720DA68D2031BD4DA68D20683
:103700004AD4DA68D20552D4DA6812F0EF0F45D104
:10371000DB6813F0020F0CBF092308238DF8073074
:103720009DF80730012B0CD09DF80730092B2BD0CA
:1037300002B0704701238DF807309DF80730012B48
:10374000F2D11C4B15E0DA68D20617D4DA68D2053C
:1037500016D4DA6812F0EF0F14D1DA6812F0020F03
:103760000CBF092208228DF807209DF80720012AA6
:10377000DAD1DA68D203E6D50122F4E70622F2E7CD
:103780000222F0E70722EEE780B249B90A4B1A8815
:103790001043188002B070470623CCE70723CAE71E
:1037A000054A138823EA0000108002B07047022304
:1037B000C1E700BF003C0240163C024082B0092233
:1037C000304B8DF80720DA68D2031BD4DA68D206B2
:1037D0004AD4DA68D20552D4DA6812F0EF0F45D134
:1037E000DB6813F0020F0CBF092308238DF80730A4
:1037F0009DF80730012B0CD09DF80730092B2BD0FA
:1038000002B0704701238DF807309DF80730012B77
:10381000F2D11C4B15E0DA68D20617D4DA68D2056B
:1038200016D4DA6812F0EF0F14D1DA6812F0020F32
:103830000CBF092208228DF807209DF80720012AD5
:10384000DAD1DA68D203E6D50122F4E70622F2E7FC
:103850000222F0E70722EEE780B249B90A4B1A8844
:103860001043188002B070470623CCE70723CAE74D
:10387000054A138823EA0000108002B07047022333
:10388000C1E700BF003C02401A3C0240034A1378E3
:1038900003F07F0318431070704700BF173C0240CD
:1038A00082B00922304B8DF80720DA68D2031BD48E
:1038B000DA68D2064BD4DA68D20552D4DA6812F04C
:1038C000EF0F46D1DB6813F0020F0CBF092308236A
:1038D0008DF807309DF80730012B0CD09DF807308C
:1038E000092B2BD002B0704701238DF807309DF8CB
:1038F0000730012BF2D11C4B15E0DA68D20617D441
:10390000DA68D20516D4DA6812F0EF0F14D1DA684B
:1039100012F0020F0CBF092208228DF807209DF833
:103920000720012ADAD1DA68D203E6D50122F4E7CA
:103930000622F2E70222F0E70722EEE780B251B951
:103940000A4A138823EA0000108002B07047062359
:10395000CBE70723C9E7054B1A881043188002B04C
:1039600070470223C1E700BF003C0240163C024002
:1039700082B00922304B8DF80720DA68D2031BD4BD
:10398000DA68D2064BD4DA68D20552D4DA6812F07B
:10399000EF0F46D1DB6813F0020F0CBF0923082399
:1039A0008DF807309DF80730012B0CD09DF80730BB
:1039B000092B2BD002B0704701238DF807309DF8FA
:1039C0000730012BF2D11C4B15E0DA68D20617D470
:1039D000DA68D20516D4DA6812F0EF0F14D1DA687B
:1039E00012F0020F0CBF092208228DF807209DF863
:1039F0000720012ADAD1DA68D203E6D50122F4E7FA
:103A00000622F2E70222F0E70722EEE780B251B980
:103A10000A4A138823EA0000108002B07047062388
:103A2000CBE70723C9E7054B1A881043188002B07B
:103A300070470223C1E700BF003C02401A3C02402D
:103A400082B00922294B8DF80720DA68D1031DD4F2
:103A5000DA68D20644D4DA68D10545D4DA6812F0BF
:103A6000EF0F3FD1DB6813F0020F14BF08230923C7
:103A70008DF807309DF80730012B0ED09DF80730E8
:103A8000092B04BF1A4B187002B0704701238DF840
:103A900007309DF80730012BF0D1144B15E0DA68A0
:103AA000D10617D4DA68D20516D4DA6812F0EF0F0F
:103AB00014D1DA6812F0020F14BF082209228DF81F
:103AC00007209DF80720012AD8D1DA68D203E6D56D
:103AD0000122F4E70622F2E70222F0E70722EEE7EE
:103AE0000623D4E70723D2E70223D0E7003C0240B5
:103AF000153C024010B483B009242D4B8DF80740CB
:103B0000DC68E40324D4DC68E4064BD4DC68E40518
:103B10004CD4DC6814F0EF0F46D1DB6813F0020FD1
:103B200014BF082309238DF807309DF80730012BB7
:103B300015D09DF80730092B07D11E4C237803F0D0
:103B40000F03184302431143217003B010BC7047A8
:103B500001238DF807309DF80730012BE9D1144B74
:103B600015E0DC68E40617D4DC68E40516D4DC68EC
:103B700014F0EF0F14D1DC6814F0020F14BF082406
:103B800009248DF807409DF80740012CD1D1DC684D
:103B9000E403E6D50124F4E70624F2E70224F0E783
:103BA0000724EEE70623D4E70723D2E70223D0E772
:103BB000003C0240143C0240044B1A7802F0EF0231
:103BC0001A701A7810431870704700BF143C0240F6
:103BD000044B1A7802F0F3021A701A781043187026
:103BE000704700BF143C02402B492C4A0B7882B02E
:103BF00043F0020309200B708DF80700D368DB0344
:103C000019D4D368D90640D4D368DB0541D4D3682E
:103C100013F0EF0F3BD1D36813F0020F14BF08234A
:103C200003468DF807309DF80730012B0AD09DF828
:103C3000070002B0704701238DF807309DF8073068
:103C4000012BF4D1154B15E0DA68D10617D4DA68E8
:103C5000D20516D4DA6812F0EF0F14D1DA6812F038
:103C6000020F14BF082209228DF807209DF80720B3
:103C7000012ADCD1DA68D003E6D50122F4E7062276
:103C8000F2E70222F0E70722EEE70623D4E7072354
:103C9000D2E70223D0E700BF143C0240003C0240C0
:103CA000024B5869C0F34710704700BF003C024008
:103CB000014B1888704700BF163C0240014B188822
:103CC000704700BF1A3C0240014B1888704700BF84
:103CD000163C0240014B1888704700BF1A3C024056
:103CE000024B1878AA3818BF01207047153C0240D3
:103CF000024B187800F00C00704700BF143C0240E3
:103D0000044A136919B923EA000010617047184387
:103D100010617047003C0240034BDB68034214BF54
:103D200001200020704700BF003C0240014BD860DA
:103D3000704700BF003C02400E4BDA68D20310D43B
:103D4000DA68D1060FD4DA68D20510D4DA6812F036
:103D5000EF0F0AD1DB6813F0020F14BF082009200F
:103D600070470120704706207047072070470220E7
:103D7000704700BF003C024082B00922274B8DF8FB
:103D80000720DA68D00319D4DA68D10640D4DA689B
:103D9000D20541D4DA6812F0EF0F3BD1DB6813F0A3
:103DA000020F14BF082309238DF807309DF8073050
:103DB000012B0AD09DF8070002B0704701238DF84F
:103DC00007309DF80730012BF4D1144B15E0DA6869
:103DD000D10617D4DA68D20516D4DA6812F0EF0FDC
:103DE00014D1DA6812F0020F14BF082209228DF8EC
:103DF00007209DF80720012ADCD1DA68D003E6D538
:103E00000122F4E70622F2E70222F0E70722EEE7BA
:103E10000623D4E70723D2E70223D0E7003C024081
:103E200010B5044682B039B1012975D002290CBF02
:103E30004FF400714FF4407109223C4B8DF807207C
:103E4000DA68D0031CD4DA68D20668D4DA68D00500
:103E500069D4DA6812F0EF0F63D1DB6813F0020F58
:103E600014BF082309238DF807309DF80730012B74
:103E70000DD09DF80730D8B209282BD002B010BD64
:103E800001238DF807309DF80730012BF1D1274B26
:103E900015E0DA68D00617D4DA68D20516D4DA68E5
:103EA00012F0EF0F14D1DA6812F0020F14BF0822DB
:103EB00009228DF807209DF80720012AD9D1DA6858
:103EC000D203E6D50122F4E70622F2E70222F0E768
:103ED0000722EEE72046154C236923F44073236143
:103EE000236919432161236923F0F80323612369BE
:103EF00043F0020318432061236943F480332361B4
:103F0000FFF73AFF236923F002032361236923F0BB
:103F1000F803236102B010BD4FF480718CE70623D3
:103F2000AFE70723ADE70223ABE700BF003C024049
:103F300010B582B009223C4B8DF80720DA68D40313
:103F4000014625D4DA68D00664D4DA68D20568D48C
:103F5000DA6812F0EF0F5FD1DB6813F0020F14BFC5
:103F6000082309238DF807309DF80730012B16D060
:103F70009DF80730D8B239B101294FD002290CBFC2
:103F80004FF400714FF4407109282BD002B010BDDE
:103F900001238DF807309DF80730012BE8D1224B23
:103FA00015E0DA68D00617D4DA68D20516D4DA68D4
:103FB00012F0EF0F14D1DA6812F0020F14BF0822CA
:103FC00009228DF807209DF80720012AD0D1DA6850
:103FD000D403E6D50122F4E70622F2E70222F0E755
:103FE0000722EEE7104C236923F440732361236911
:103FF00019432161236943F004032361236943F4D6
:1040000080332361FFF7B8FE236923F004032361A3
:1040100002B010BD0623BCE70723BAE74FF4807156
:10402000B2E70223B5E700BF003C024010B582B002
:1040300009223C4B8DF80720DA68D403014625D4C9
:10404000DA68D00664D4DA68D20568D4DA6812F087
:10405000EF0F5FD1DB6813F0020F14BF08230923B1
:104060008DF807309DF80730012B16D09DF80730EA
:10407000D8B239B101294FD002290CBF4FF40071D9
:104080004FF4407109282BD002B010BD01238DF8E8
:1040900007309DF80730012BE8D1224B15E0DA6894
:1040A000D00617D4DA68D20516D4DA6812F0EF0F0A
:1040B00014D1DA6812F0020F14BF082209228DF819
:1040C00007209DF80720012AD0D1DA68D403E6D56D
:1040D0000122F4E70622F2E70222F0E70722EEE7E8
:1040E000104C236923F44073236123691943216130
:1040F000236943F400432361236943F4803323613C
:10410000FFF73AFE236923F40043236102B010BD98
:104110000623BCE70723BAE74FF48071B2E7022316
:10412000B5E700BF003C0240F0B583B00924374931
:104130008DF80740CF680646F80314461D461CD488
:10414000CB68DA065CD4CB68DB055DD4CB6813F0B2
:10415000EF0F57D1CB6813F0020F14BF08230923C8
:104160008DF807309DF80730012B0DD09DF80730F2
:10417000D8B209282BD003B0F0BD01238DF8073049
:104180009DF80730012BF1D1204B15E0D968C80606
:1041900017D4DA68D20516D4DA6812F0EF0F14D10A
:1041A000DA6812F0020F14BF082109218DF80710F8
:1041B0009DF807100129D9D1D968CF03E6D501218F
:1041C000F4E70621F2E70221F0E70721EEE72946AE
:1041D0000E4D2B6923F440732B612B6943F440731C
:1041E0002B612B69204643F001032B61C6E90001D6
:1041F000FFF7C2FD2B6923F001032B6103B0F0BD73
:104200000623BBE70723B9E70223B7E7003C0240D8
:1042100010B582B00922354B8DF80720DA680446C4
:10422000D0031CD4DA68D2065AD4DA68D0055BD43D
:10423000DA6812F0EF0F55D1DB6813F0020F14BFEC
:10424000082309238DF807309DF80730012B0DD086
:104250009DF80730D8B209282BD002B010BD012339
:104260008DF807309DF80730012BF1D11F4B15E079
:10427000DA68D00617D4DA68D20516D4DA6812F0F4
:10428000EF0F14D1DA6812F0020F14BF08220922CE
:104290008DF807209DF80720012AD9D1DA68D203CA
:1042A000E6D50122F4E70622F2E70222F0E7072230
:1042B000EEE720460D4C236923F440732361236904
:1042C00043F400732361236943F001032361016018
:1042D000FFF752FD236923F00103236102B010BDF3
:1042E0000623BDE70723BBE70223B9E7003C0240F2
:1042F00010B582B00922354B8DF80720DA680446E4
:10430000D0031CD4DA68D2065AD4DA68D0055BD45C
:10431000DA6812F0EF0F55D1DB6813F0020F14BF0B
:10432000082309238DF807309DF80730012B0DD0A5
:104330009DF80730D8B209282BD002B010BD012358
:104340008DF807309DF80730012BF1D11F4B15E098
:10435000DA68D00617D4DA68D20516D4DA6812F013
:10436000EF0F14D1DA6812F0020F14BF08220922ED
:104370008DF807209DF80720012AD9D1DA68D203E9
:10438000E6D50122F4E70622F2E70222F0E707224F
:10439000EEE720460D4C236923F440732361236923
:1043A00043F480732361236943F001032361018097
:1043B000FFF7E2FC236923F00103236102B010BD83
:1043C0000623BDE70723BBE70223B9E7003C024011
:1043D00010B582B00922344B8DF80720DA68044604
:1043E000D0031CD4DA68D20658D4DA68D00559D480
:1043F000DA6812F0EF0F53D1DB6813F0020F14BF2D
:10440000082309238DF807309DF80730012B0DD0C4
:104410009DF80730D8B209282BD002B010BD012377
:104420008DF807309DF80730012BF1D11E4B15E0B8
:10443000DA68D00617D4DA68D20516D4DA6812F032
:10444000EF0F14D1DA6812F0020F14BF082209220C
:104450008DF807209DF80720012AD9D1DA68D20308
:10446000E6D50122F4E70622F2E70222F0E707226E
:10447000EEE720460C4C236923F440732361236943
:104480002361236943F0010323610170FFF774FC8A
:10449000236923F00103236102B010BD0623BFE7A7
:1044A0000723BDE70223BBE7003C024010B582B002
:1044B00009223C4B8DF80720DA68D403014625D445
:1044C000DA68D00664D4DA68D20568D4DA6812F003
:1044D000EF0F5FD1DB6813F0020F14BF082309232D
:1044E0008DF807309DF80730012B16D09DF8073066
:1044F000D8B239B101294FD002290CBF4FF4007155
:104500004FF4407109282BD002B010BD01238DF863
:1045100007309DF80730012BE8D1224B15E0DA680F
:10452000D00617D4DA68D20516D4DA6812F0EF0F85
:1045300014D1DA6812F0020F14BF082209228DF894
:1045400007209DF80720012AD0D1DA68D403E6D5E8
:104550000122F4E70622F2E70222F0E70722EEE763
:10456000104C236923F440732361236919432161AB
:10457000236943F004032361236943F480332361F7
:10458000FFF7FAFB236923F00403236102B010BD97
:104590000623BCE70723BAE74FF48071B2E7022392
:1045A000B5E700BF003C02404FF0204360B143F24A
:1045B000D20243F82020800000F120406FF07043C9
:1045C0004360C0F80431704743F2DB021A60F2E73F
:1045D000D0E9013270B4D0E9035413432B4341694D
:1045E0002343D0E906450B432343D0E908412B433D
:1045F0002343856A04680B43C16A2B43A400056BFF
:104600000B4304F120442B43082A236003D1236881
:1046100043F040032360426B9569136856682B434F
:10462000956843EA061343EA0523D668D2E90452A3
:1046300043EA064343EA055343EA0263B1F5804F78
:10464000636005D06FF07043C4F8043170BC7047EC
:10465000826B95691368D2E901102B4343EA011379
:10466000D2E9041243EA002343EA015343EA026316
:10467000C4F8043170BC704730B4D0E90D41022356
:104680004FF480524FF4005543604262856200232C
:104690000F22FF250360C0E90233C0E90433C0E9FB
:1046A00006330362C0E90B33A361C4E90022C4E905
:1046B00003226261A560C1E90252C1E90022C1E999
:1046C00004228B6130BC7047800000F1204021B98A
:1046D0000268044B134003607047036843F0010312
:1046E00003607047FEFF0F0010280CBF054B064B00
:1046F0004FF0FC3218204021186059609A60DA604F
:10470000704700BF600000A0800000A0F0B5D0E9B5
:104710000132D0E90776C5680469B968D0F818C0D5
:10472000D7F800E0134343F0080383B02B4323433F
:1047300044690194B2687C6875680068090441EABC
:1047400004211204019C42EA0522FD683768102802
:1047500043EA4423F4680CBF0748084841EA0E01C5
:104760003A4343EA4C3341EA056142EA046203609A
:104770008160C26003B0F0BD600000A0800000A0B6
:1047800010B4D0E90741102303600022FC23C0E9E4
:104790000122C0E90322C0E90522C4E90033C4E9CB
:1047A0000233C1E90033C1E9023310BC704700BFD6
:1047B00041B110280CBF084A084A136843F00403AB
:1047C0001360704710280CBF034A044A044B116859
:1047D0000B401360704700BF600000A0800000A085
:1047E000FBFF0F0041B110280CBF084A084A1368AC
:1047F00043F040031360704710280CBF034A044A7B
:10480000044B11680B401360704700BF600000A0AC
:10481000800000A0BFFF0F0010280CBF014B024B0F
:1048200058697047600000A0800000A0054B4FF061
:10483000FC3218200021186059609A60DA601A6111
:10484000704700BFA00000A070B4D0E90035D0E9E7
:10485000024143F01003154A43EA452343EA443337
:104860001360D1E901530C68C9681B0443EA0523AE
:10487000234343EA016301699360D1E901630D6851
:10488000CC6841691B0443EA06232B4343EA0463D3
:10489000D360D1E901430868C9681B0443EA0423D3
:1048A000034343EA0163136170BC7047A00000A09A
:1048B00030B4D0E903414269FC2300250560C0E91A
:1048C0000155C4E90033C4E90233C1E90033C1E949
:1048D000023330BCC2E90033C2E90233704700BF83
:1048E000054A20B91168054B0B40136070471368E7
:1048F00043F0040313607047A00000A0FBFF0F000B
:1049000052B110281AD0B0F5807F0CBF0E4A0F4A62
:10491000536819435160704710286FEA010108D0AD
:10492000B0F5807F0CBF084A084A536819405160AF
:104930007047074A5368194051607047044A5368EA
:1049400019435160704700BF800000A0A00000A084
:10495000600000A010280AD0B0F5807F0CBF054B86
:10496000054B5B680B4214BF012000207047034BCE
:104970005B68F7E7800000A0A00000A0600000A036
:1049800010286FEA010108D0B0F5807F0CBF054AFE
:10499000054A5368194051607047044A53681940EA
:1049A00051607047800000A0A00000A0600000A03F
:1049B00010280ED0B0F5807F0CBF074B074B5B680B
:1049C00013EA010004D013EAD10314BF0120002030
:1049D0007047034B5B68F3E7800000A0A00000A0D5
:1049E000600000A010286FEAD10108D0B0F5807FE8
:1049F0000CBF054A054A5368194051607047044A84
:104A00005368194051607047800000A0A00000A0CA
:104A1000600000A008B54B4B984228D04A4B984202
:104A20002FD04A4B984236D0494B98423DD0494B03
:104A3000984212D0484B984241D0484B984248D0B7
:104A4000474B98425BD0474B984262D0464B9842C6
:104A500049D0464B984268D008BD0121102001F092
:104A600021FB00211020BDE8084001F01BBB012103
:104A7000084601F017FB00210120BDE8084001F0C5
:104A800011BB0121022001F00DFB00210220BDE835
:104A9000084001F007BB0121042001F003FB0021C5
:104AA0000420BDE8084001F0FDBA0121082001F012
:104AB000F9FA00210820BDE8084001F0F3BA01210D
:104AC000202001F0EFFA00212020BDE8084001F08D
:104AD000E9BA0121402001F0E5FA00214020BDE8BB
:104AE000084001F0DFBA01214FF4007001F0DAFA5A
:104AF00000214FF40070BDE8084001F0D3BA012155
:104B0000802001F0CFFA00218020BDE8084001F0AC
:104B1000C9BA01214FF4807001F0C4FA00214FF4AA
:104B20008070BDE8084001F0BDBA01214FF48060FB
:104B300001F0B8FA00214FF48060BDE8084001F0B0
:104B4000B1BA00BF00000240000402400008024069
:104B5000000C024000100240001402400018024005
:104B6000001C0240002002400024024000280240B5
:104B70002DE9F047D1F800C0002301274FF0030EC4
:104B800002E00133102B3FD007FA03F232EA0C04A3
:104B9000F7D15C00D0F800800E790EFA04F5ED43F1
:104BA00008EA0508C0F80080D0F800A006FA04F969
:104BB000013E49EA0A09012E0EFA04F8C0F80090F5
:104BC00016D8D0F808904E7905EA09058560D0F826
:104BD00008908D79A64046EA09068660466826EA6E
:104BE00002024260466805FA03F292B23243426022
:104BF000C568CA7925EA0805C560C568A2400133C1
:104C00002A43102BC260BFD1BDE8F0874FF6FF7278
:104C10000023C0E90023704782B04FF48033019332
:104C2000019B0B430193019BC361C161019BC36164
:104C3000C3690193C369019302B0704703691942C4
:104C400014BF012000207047006980B2704700BF88
:104C50004369194214BF012000207047406980B2A7
:104C6000704700BF01837047418370470AB9418391
:104C700070470183704700BF4161704743695940E5
:104C800041617047CB0800EB830001F0070110B4CD
:104C9000036A89000F248C4023EA04030362036A39
:104CA00010BC02FA01F119430162704708B50121F5
:104CB000202001F003FA00212020BDE8084001F087
:104CC000FDB900BF104A136823F4802323F0F003DA
:104CD00030B4136003688568146841682B4323432C
:104CE0000B434029136007D1136823F4803313600A
:104CF000C16813680B431360034A136843F004034D
:104D0000136030BC704700BF000406500023C0E9A8
:104D10000033C0E902337047024A136843F00403CA
:104D20001360704700040650044B9A6822F01F027B
:104D30009A609A6810439860704700BF000406505C
:104D4000014B5860704700BF00040650024B1868C2
:104D5000C0F30320704700BF00040650094B0A4A05
:104D6000D968016019694160596981609969C160B8
:104D7000DB6903615369436193698361D369C361EB
:104D8000704700BF0004065010070650024A93689F
:104D900043F48073936070470004065009490B6A1E
:104DA00003608B6843600B6840F8083F002303F101
:104DB0003E02013351F8222040F8042F362BF6D161
:104DC000704700BF000406500C4B026810B41A6212
:104DD00042689A6050F8082F1A601A6842F004027C
:104DE0001C461A60002303F13E02013350F8041FF1
:104DF00044F82210362BF6D110BC70470004065040
:104E0000054A136818B943F400531360704723F43C
:104E100000531360704700BF00040650054A136832
:104E200018B923F008031360704743F008031360B8
:104E3000704700BF00040650044A136A19B923EAF8
:104E4000000010627047184310627047000406505B
:104E5000044BC2044CBF1B685B6A034214BF0120B1
:104E60000020704700040650014BC0435862704751
:104E700000040650044A516A136A0B40034214BFEF
:104E800001200020704700BF00040650014BC043C2
:104E90005862704700040650F0B501F003038FB06C
:104EA000DB0000240D46ADF802400746164601948B
:104EB000ADF80230FFF7FAFE8022202302A8039407
:104EC00002920493FFF7FEFEBDF80200FFF72CFFED
:104ED0003DB13C4654F8040BFFF732FFE31BAB42F5
:104EE000F8D3FFF753FF00E068B10820FFF7B0FFE9
:104EF000019B01330193019BB3F5803FF4D110B1C5
:104F000000200FB0F0BD06A8FFF728FF069B1BBAD4
:104F10003360079B1BBA7360089B1BBAB360099B85
:104F20001BBA0120F3600FB0F0BD00BF2DE9F041C6
:104F30000D468EB003F003011F4605F00303002465
:104F4000DB00C900ADF800409046ADF802400646CF
:104F50000194ADF80010ADF80230FFF7A7FE8023F2
:104F60004022029395424FF02003CDE9032323D83A
:104F700002A80594FFF7A6FEBDF80200FFF7D4FED5
:104F80003DB1344654F8040BFFF7DAFEA31BAB42E5
:104F9000F8D3FFF7FBFE00E0C8B10820FFF758FF89
:104FA000019B01330193019BB3F5803FF4D170B1B4
:104FB00000200EB0BDE8F0814FF4803302A80593C5
:104FC000FFF780FEBDF80200FFF7AEFED9E7BDF89F
:104FD0000000FFF7A9FE47B1444654F8040BFFF761
:104FE000AFFEA4EB0803BB42F7D3FFF7CFFE0023CD
:104FF000019300E058B10820FFF72AFF019B01331D
:105000000193019BB3F5803FF4D10028D0D1BDF8C6
:105010000200FFF789FE3DB1344654F8040BFFF758
:105020008FFEA31B9D42F8D8FFF7B0FE002301932B
:1050300000E058B10820FFF70BFF019B01330193FB
:10504000019BB3F5803FF4D10028B1D106A8FFF74A
:1050500085FE069B1BBA149A1360079B1BBA53600C
:10506000089B1BBA9360099B1BBA0120D360A0E781
:10507000F0B501F003038FB0DB0000240D46ADF85E
:105080000240074616460194ADF80230FFF70EFEC7
:10509000202302A8CDE902440493FFF713FEBDF8D4
:1050A0000200FFF741FE3DB13C4654F8040BFFF708
:1050B00047FEE31BAB42F8D3FFF768FE00E068B1A0
:1050C0000820FFF7C5FE019B01330193019BB3F557
:1050D000803FF4D110B100200FB0F0BD06A8FFF75B
:1050E0003DFE069B1BBA3360079B1BBA7360089B8F
:1050F0001BBAB360099B1BBAF3600A9B1BBA012061
:1051000033610FB0F0BD00BF2DE9F0410D468EB008
:1051100003F003011F4605F003030024DB00C90070
:10512000ADF800409046ADF8024006460194ADF857
:105130000010ADF80230FFF7B9FD40222023954260
:10514000CDE90242049323D802A80594FFF7BAFDE3
:10515000BDF80200FFF7E8FD3DB1344654F8040BFA
:10516000FFF7EEFDA31BAB42F8D3FFF70FFE00E005
:10517000C8B10820FFF76CFE019B01330193019B2E
:10518000B3F5803FF4D170B100200EB0BDE8F081DE
:105190004FF4803302A80593FFF794FDBDF8020099
:1051A000FFF7C2FDD9E7BDF80000FFF7BDFD47B12D
:1051B000444654F8040BFFF7C3FDA4EB0803BB42BD
:1051C000F7D3FFF7E3FD0023019300E058B1082077
:1051D000FFF73EFE019B01330193019BB3F5803F36
:1051E000F4D10028D0D1BDF80200FFF79DFD3DB1FC
:1051F000344654F8040BFFF7A3FDA31B9D42F8D8D7
:10520000FFF7C4FD0023019300E058B10820FFF729
:105210001FFE019B01330193019BB3F5803FF4D145
:105220000028B1D106A8FFF799FD069B1BBA149A76
:105230001360079B1BBA5360089B1BBA9360099BC2
:105240001BBAD3600A9B1BBA012013619DE700BF04
:1052500008B5174B984206D0164B98421BD0164BF8
:1052600098420CD008BD01214FF4001000F03EFF21
:1052700000214FF40010BDE8084000F037BF0121C5
:105280004FF4000000F032FF00214FF40000BDE8B1
:10529000084000F02BBF01214FF4800000F026FFF2
:1052A00000214FF48000BDE8084000F01FBF00BFA0
:1052B0000054004000580040005C0040F0B5054636
:1052C00085B068460E46AC8800F0FCFD02982C497B
:1052D0003368DFF8B8C0A1FB002124F03F042404A8
:1052E000890C240C8FB23C43AC802A8822F0010246
:1052F0001204120C63452A801BD85B00B0FBF3F349
:105300009BB20137042B38BF04232F84AB832A8838
:10531000B18874891B4B308942F001022A802F88A2
:10532000B2893B4021430B4302432B802A8105B0C5
:10533000F0BDF4884BF6FF7294421AD003EB83035E
:1053400003EB8303B0FBF3F39BB243F48043C3F35B
:105350000B020AB943F001034FF496720A4802FBAC
:1053600001F1A0FB01218909013143F400432984A3
:10537000CCE703EB4303B0FBF3F39BB2E7E700BFDB
:1053800083DE1B43F5FBFFFFD34D6210A0860100B7
:1053900041F288330449036000224FF48043C0E99E
:1053A00001128381704700BF0000FFBF038829B945
:1053B00023F001031B041B0C0380704743F001031F
:1053C00003807047838C19B943F0100383847047BE
:1053D00023F010031B041B0C83847047838C9BB247
:1053E00001F00F0123F00F030B438384704700BFCC
:1053F000038829B923F480731B041B0C03807047B6
:1054000043F4807303807047038829B923F4007341
:105410001B041B0C0380704743F400730380704728
:1054200022B901F0FE0189B20182704741F0010109
:1054300089B20182704700BF038829B923F48063D1
:105440001B041B0C0380704743F480630380704788
:1054500083899BB201F0FE0123F0FE030B4383819D
:10546000704700BF838929B923F001031B041B0C7B
:105470008381704743F0010383817047038829B912
:1054800023F040031B041B0C0380704743F04003D0
:1054900003807047038819B9C3F30E030380704774
:1054A00043F4004303807047038829B123F080034D
:1054B0001B041B0C0380704743F08003038070477C
:1054C000838BB1F5804F1DBF23F480431B041B0C5D
:1054D00043F48043838370470388B1F5006F1BBF9B
:1054E00023F400631B0443F400631B0C0380704728
:1054F0000388B1F5005F1BBF23F400531B0443F482
:1055000000531B0C03807047038829B923F0100354
:105510001B041B0C0380704743F01003038070478B
:1055200001827047008AC0B2704700BF038829B962
:1055300023F480531B041B0C0380704743F48053F7
:10554000038070470388B1F5006F1BBF23F400632D
:105550001B0443F400631B0C03807047038829B9C4
:1055600023F020031B041B0C0380704743F020032F
:1055700003807047008B000A704700BF838829B9F9
:1055800023F400631B041B0C8380704743F4006307
:1055900083807047838829B923F480531B041B0C34
:1055A0008380704743F480538380704782B0002328
:1055B00001930190019B19440191019B188802B04D
:1055C000704700BF83881AB923EA010181807047C0
:1055D00019438180704700BF838A028B21F07F408E
:1055E00043EA02431840401AB0FA80F0400970477D
:1055F000838A008B43EA004020F07F40704700BF61
:1056000082B000230A0F0093019301900092009B47
:1056100021F07F4153B1019B14330193019B1B681F
:105620000B4214BF0120002002B07047019B1833C9
:10563000090C0193F2E700BFC94389B28182704728
:105640008388808A08409BB206D003F4E06313EAA3
:10565000114314BF01200020704700BFC94389B225
:1056600081827047014B1860704700BF00300040D6
:10567000014B5860704700BF00300040014B9860FC
:10568000704700BF00300040024B4AF6AA221A6061
:10569000704700BF00300040024B4CF6CC421A600D
:1056A000704700BF00300040034BDB68184214BF56
:1056B00001200020704700BF0030004008B50121E4
:1056C0004FF0806000F01EFD00214FF08060BDE8CB
:1056D000084000F017BD00BF244B25499A6870B4FC
:1056E000244C22409A60D0E904569A68324342EA38
:1056F00005429A60DA682240DA60D0E90656DA6834
:10570000324342EA0542DA601A6922401A61D0E95E
:1057100008561A69324342EA05421A615A6914402E
:105720005C61D0E90A455A692A4342EA04425A6157
:105730009A6911409961D0E90025996984682A43E2
:105740000A43C16822430A439A61D96A456B046BD4
:1057500001F07F41D962816BDA6A0A4342EA05228D
:1057600042EA0442DA6270BC704700BF0068014040
:105770008F88FE0F00F800F00023C0E90033C0E975
:105780000233C0E90433C0E90633C0E90833C0E995
:105790000A33C0E90C338363704700BF054A93693D
:1057A00018B923F001039361704743F0010393613B
:1057B000704700BF00680140054A936918B923F497
:1057C00080339361704743F480339361704700BF27
:1057D00000680140094B0A4A99690A4010B49A616D
:1057E0009C6999699A69C4F30214C1F30221C2F356
:1057F0000232C0E90041826010BC7047006801407D
:105800008F88FE0F0223C0E900338360704700BF1A
:10581000014B1864704700BF00680140014B58629B
:10582000704700BF00680140D1E9003230B44468DD
:10583000CD6843EA024304F47044446043608468E2
:105840008A680B6A42EA054204F470448460CD69B8
:10585000826002698C691B0443EA05234D6A22F0C9
:10586000070223430C69026143EA056304610024D3
:1058700082698461836143694D698A6A23F0FF0309
:1058800043614561C369CD6A23F4E0632A4323F091
:105890000703C361C261836A84620B6B8362D1E9CF
:1058A0000D34C26AC96B43EA044302F0E022C262CB
:1058B000C362036B23F4FF6323F00703036330BC6D
:1058C00001637047002310B44FF4C061FF24072226
:1058D0004461C0E90A12C0E90033C0E90233036140
:1058E000C0E90633C0E90833C0E90C33C0E90E3320
:1058F00010BC7047036819B923F0010303607047B7
:1059000043F0010303607047054B0022596C5A6451
:105910005A6C5B6C120C9BB2C0E90023704700BF4D
:10592000006801400023C0E900337047034B9B6CC3
:10593000034214BF01200020704700BF00680140EF
:105940003AB9036823F0020303600E4B01225A6246
:105950007047026842F0020210B4D1E901430968BD
:105960000260C26802F07F42C2601B04C26843EA60
:1059700004230B431343C360024B10BC01225A6241
:10598000704700BF006801400023C0E90033836016
:10599000704700BF036831B923F010030360054B63
:1059A00001225A62704743F010030360014B012249
:1059B0005A6270470068014030B4D1E90253D1E91E
:1059C00000241B0443EA0523234343EA02630364E0
:1059D00030BC70470023C0E90033C0E90233704790
:1059E000436803F470434360836830B403F4704346
:1059F000174C8360E36805699CB201EB13410134E5
:105A0000224401314DB1012D1DD0AB1E022B1CD9FA
:105A1000072D0CBF0225012500E00425C36A046B95
:105A2000C3F30C03033BB3FBF5F34D1E2B44C4F34C
:105A30000A04551E2C4442EA044441EA03434360ED
:105A4000846030BC70470325E8E70225E6E700BF25
:105A5000006801404161704781627047036970B41A
:105A600043B1012B1ED09C1E022C1ED9072B1CD02B
:105A70000E4600E08E0044688368C4F30C040139CC
:105A8000C3F30C032144551E44EA01441D44F11C98
:105A900043EA054341EA06414460836070BCC16249
:105AA0000263704701EB4106E5E74E00E3E700BF04
:105AB00003694BB1012B1DD09A1E022A1FD9072B57
:105AC00014BF0122022200E00422C36A1B0CB3FBB4
:105AD000F2F341B101290FD08A1E022A01D9072908
:105AE00002D15B0000E09B00DA1C42EA0343C36280
:105AF000016170470322E8E703EB4303F4E7022266
:105B0000E3E700BF044A536B19B923EA000050636E
